{"contract/CertificateRegistry.sol":{"CertificateRegistry":{"abi":[{"inputs":[],"stateMutability":"nonpayable","type":"constructor"},{"anonymous":false,"inputs":[{"indexed":true,"internalType":"string","name":"certificateId","type":"string"},{"indexed":false,"internalType":"string","name":"certificateHash","type":"string"},{"indexed":false,"internalType":"string","name":"studentName","type":"string"},{"indexed":false,"internalType":"string","name":"course","type":"string"},{"indexed":true,"internalType":"address","name":"issuerAddress","type":"address"},{"indexed":false,"internalType":"uint256","name":"issuedAt","type":"uint256"}],"name":"CertificateIssued","type":"event"},{"anonymous":false,"inputs":[{"indexed":true,"internalType":"string","name":"certificateId","type":"string"},{"indexed":true,"internalType":"address","name":"issuerAddress","type":"address"},{"indexed":false,"internalType":"uint256","name":"revokedAt","type":"uint256"}],"name":"CertificateRevoked","type":"event"},{"inputs":[{"internalType":"string","name":"certificateHash","type":"string"},{"internalType":"string","name":"certificateId","type":"string"},{"internalType":"string","name":"studentName","type":"string"},{"internalType":"string","name":"course","type":"string"}],"name":"issueCertificate","outputs":[],"stateMutability":"nonpayable","type":"function"},{"inputs":[],"name":"owner","outputs":[{"internalType":"address","name":"","type":"address"}],"stateMutability":"view","type":"function"},{"inputs":[{"internalType":"string","name":"certificateId","type":"string"}],"name":"revokeCertificate","outputs":[],"stateMutability":"nonpayable","type":"function"},{"inputs":[{"internalType":"string","name":"certificateId","type":"string"}],"name":"verifyCertificate","outputs":[{"internalType":"string","name":"certificateHash","type":"string"},{"internalType":"string","name":"storedCertificateId","type":"string"},{"internalType":"string","name":"studentName","type":"string"},{"internalType":"string","name":"course","type":"string"},{"internalType":"address","name":"issuerAddress","type":"address"},{"internalType":"uint256","name":"issuedAt","type":"uint256"},{"internalType":"bool","name":"revoked","type":"bool"},{"internalType":"bool","name":"exists","type":"bool"}],"stateMutability":"view","type":"function"}],"evm":{"bytecode":{"linkReferences":{},"object":"60a060405234801561001057600080fd5b503373ffffffffffffffffffffffffffffffffffffffff1660808173ffffffffffffffffffffffffffffffffffffffff16815250506080516115b961006d6000396000818160e0015281816102fb0152610a3801526115b96000f3fe608060405234801561001057600080fd5b506004361061004c5760003560e01c8063142e154214610051578063818a29941461006d5780638b23d875146100895780638da5cb5b146100c0575b600080fd5b61006b60048036038101906100669190610bb4565b6100de565b005b61008760048036038101906100829190610bfd565b6102f9565b005b6100a3600480360381019061009e9190610bb4565b6106db565b6040516100b7989796959493929190610dc8565b60405180910390f35b6100c8610a36565b6040516100d59190610e62565b60405180910390f35b7f000000000000000000000000000000000000000000000000000000000000000073ffffffffffffffffffffffffffffffffffffffff163373ffffffffffffffffffffffffffffffffffffffff161461016c576040517f08c379a000000000000000000000000000000000000000000000000000000000815260040161016390610ec9565b60405180910390fd5b60008151116101b0576040517f08c379a00000000000000000000000000000000000000000000000000000000081526004016101a790610f35565b60405180910390fd5b600080826040516101c19190610f91565b908152602001604051809103902090508060060160019054906101000a900460ff16610222576040517f08c379a000000000000000000000000000000000000000000000000000000000815260040161021990610ff4565b60405180910390fd5b8060060160009054906101000a900460ff1615610274576040517f08c379a000000000000000000000000000000000000000000000000000000000815260040161026b90611060565b60405180910390fd5b60018160060160006101000a81548160ff0219169083151502179055503373ffffffffffffffffffffffffffffffffffffffff16826040516102b69190610f91565b60405180910390207f47958cdd7f8a583eead77c76bf001a8af1605d4494014e49cf9cffbe4f8240cd426040516102ed9190611080565b60405180910390a35050565b7f000000000000000000000000000000000000000000000000000000000000000073ffffffffffffffffffffffffffffffffffffffff163373ffffffffffffffffffffffffffffffffffffffff1614610387576040517f08c379a000000000000000000000000000000000000000000000000000000000815260040161037e90610ec9565b60405180910390fd5b60008451116103cb576040517f08c379a00000000000000000000000000000000000000000000000000000000081526004016103c2906110e7565b60405180910390fd5b600083511161040f576040517f08c379a000000000000000000000000000000000000000000000000000000000815260040161040690610f35565b60405180910390fd5b6000825111610453576040517f08c379a000000000000000000000000000000000000000000000000000000000815260040161044a90611153565b60405180910390fd5b6000815111610497576040517f08c379a000000000000000000000000000000000000000000000000000000000815260040161048e906111bf565b60405180910390fd5b600080846040516104a89190610f91565b908152602001604051809103902090508060060160019054906101000a900460ff161561050a576040517f08c379a00000000000000000000000000000000000000000000000000000000081526004016105019061122b565b60405180910390fd5b6040518061010001604052808681526020018581526020018481526020018381526020013373ffffffffffffffffffffffffffffffffffffffff168152602001428152602001600015158152602001600115158152506000856040516105709190610f91565b908152602001604051809103902060008201518160000190816105939190611457565b5060208201518160010190816105a99190611457565b5060408201518160020190816105bf9190611457565b5060608201518160030190816105d59190611457565b5060808201518160040160006101000a81548173ffffffffffffffffffffffffffffffffffffffff021916908373ffffffffffffffffffffffffffffffffffffffff16021790555060a0820151816005015560c08201518160060160006101000a81548160ff02191690831515021790555060e08201518160060160016101000a81548160ff0219169083151502179055509050503373ffffffffffffffffffffffffffffffffffffffff168460405161068f9190610f91565b60405180910390207fa590c478c11eae83022aa3c1af0b90085ef1374166521d82ecb31cb0e5efac2c878686426040516106cc9493929190611529565b60405180910390a35050505050565b6060806060806000806000806000808a6040516106f89190610f91565b9081526020016040518091039020604051806101000160405290816000820180546107229061127a565b80601f016020809104026020016040519081016040528092919081815260200182805461074e9061127a565b801561079b5780601f106107705761010080835404028352916020019161079b565b820191906000526020600020905b81548152906001019060200180831161077e57829003601f168201915b505050505081526020016001820180546107b49061127a565b80601f01602080910402602001604051908101604052809291908181526020018280546107e09061127a565b801561082d5780601f106108025761010080835404028352916020019161082d565b820191906000526020600020905b81548152906001019060200180831161081057829003601f168201915b505050505081526020016002820180546108469061127a565b80601f01602080910402602001604051908101604052809291908181526020018280546108729061127a565b80156108bf5780601f10610894576101008083540402835291602001916108bf565b820191906000526020600020905b8154815290600101906020018083116108a257829003601f168201915b505050505081526020016003820180546108d89061127a565b80601f01602080910402602001604051908101604052809291908181526020018280546109049061127a565b80156109515780601f1061092657610100808354040283529160200191610951565b820191906000526020600020905b81548152906001019060200180831161093457829003601f168201915b505050505081526020016004820160009054906101000a900473ffffffffffffffffffffffffffffffffffffffff1673ffffffffffffffffffffffffffffffffffffffff1673ffffffffffffffffffffffffffffffffffffffff168152602001600582015481526020016006820160009054906101000a900460ff161515151581526020016006820160019054906101000a900460ff1615151515815250509050806000015181602001518260400151836060015184608001518560a001518660c001518760e001519850985098509850985098509850985050919395975091939597565b7f000000000000000000000000000000000000000000000000000000000000000081565b6000604051905090565b600080fd5b600080fd5b600080fd5b600080fd5b6000601f19601f8301169050919050565b7f4e487b7100000000000000000000000000000000000000000000000000000000600052604160045260246000fd5b610ac182610a78565b810181811067ffffffffffffffff82111715610ae057610adf610a89565b5b80604052505050565b6000610af3610a5a565b9050610aff8282610ab8565b919050565b600067ffffffffffffffff821115610b1f57610b1e610a89565b5b610b2882610a78565b9050602081019050919050565b82818337600083830152505050565b6000610b57610b5284610b04565b610ae9565b905082815260208101848484011115610b7357610b72610a73565b5b610b7e848285610b35565b509392505050565b600082601f830112610b9b57610b9a610a6e565b5b8135610bab848260208601610b44565b91505092915050565b600060208284031215610bca57610bc9610a64565b5b600082013567ffffffffffffffff811115610be857610be7610a69565b5b610bf484828501610b86565b91505092915050565b60008060008060808587031215610c1757610c16610a64565b5b600085013567ffffffffffffffff811115610c3557610c34610a69565b5b610c4187828801610b86565b945050602085013567ffffffffffffffff811115610c6257610c61610a69565b5b610c6e87828801610b86565b935050604085013567ffffffffffffffff811115610c8f57610c8e610a69565b5b610c9b87828801610b86565b925050606085013567ffffffffffffffff811115610cbc57610cbb610a69565b5b610cc887828801610b86565b91505092959194509250565b600081519050919050565b600082825260208201905092915050565b60005b83811015610d0e578082015181840152602081019050610cf3565b60008484015250505050565b6000610d2582610cd4565b610d2f8185610cdf565b9350610d3f818560208601610cf0565b610d4881610a78565b840191505092915050565b600073ffffffffffffffffffffffffffffffffffffffff82169050919050565b6000610d7e82610d53565b9050919050565b610d8e81610d73565b82525050565b6000819050919050565b610da781610d94565b82525050565b60008115159050919050565b610dc281610dad565b82525050565b6000610100820190508181036000830152610de3818b610d1a565b90508181036020830152610df7818a610d1a565b90508181036040830152610e0b8189610d1a565b90508181036060830152610e1f8188610d1a565b9050610e2e6080830187610d85565b610e3b60a0830186610d9e565b610e4860c0830185610db9565b610e5560e0830184610db9565b9998505050505050505050565b6000602082019050610e776000830184610d85565b92915050565b7f4f6e6c79206f776e657200000000000000000000000000000000000000000000600082015250565b6000610eb3600a83610cdf565b9150610ebe82610e7d565b602082019050919050565b60006020820190508181036000830152610ee281610ea6565b9050919050565b7f6365727469666963617465496420726571756972656400000000000000000000600082015250565b6000610f1f601683610cdf565b9150610f2a82610ee9565b602082019050919050565b60006020820190508181036000830152610f4e81610f12565b9050919050565b600081905092915050565b6000610f6b82610cd4565b610f758185610f55565b9350610f85818560208601610cf0565b80840191505092915050565b6000610f9d8284610f60565b915081905092915050565b7f4365727469666963617465206e6f7420666f756e640000000000000000000000600082015250565b6000610fde601583610cdf565b9150610fe982610fa8565b602082019050919050565b6000602082019050818103600083015261100d81610fd1565b9050919050565b7f436572746966696361746520616c7265616479207265766f6b65640000000000600082015250565b600061104a601b83610cdf565b915061105582611014565b602082019050919050565b600060208201905081810360008301526110798161103d565b9050919050565b60006020820190506110956000830184610d9e565b92915050565b7f6365727469666963617465486173682072657175697265640000000000000000600082015250565b60006110d1601883610cdf565b91506110dc8261109b565b602082019050919050565b60006020820190508181036000830152611100816110c4565b9050919050565b7f73747564656e744e616d65207265717569726564000000000000000000000000600082015250565b600061113d601483610cdf565b915061114882611107565b602082019050919050565b6000602082019050818103600083015261116c81611130565b9050919050565b7f636f757273652072657175697265640000000000000000000000000000000000600082015250565b60006111a9600f83610cdf565b91506111b482611173565b602082019050919050565b600060208201905081810360008301526111d88161119c565b9050919050565b7f436572746966696361746520616c726561647920657869737473000000000000600082015250565b6000611215601a83610cdf565b9150611220826111df565b602082019050919050565b6000602082019050818103600083015261124481611208565b9050919050565b7f4e487b7100000000000000000000000000000000000000000000000000000000600052602260045260246000fd5b6000600282049050600182168061129257607f821691505b6020821081036112a5576112a461124b565b5b50919050565b60008190508160005260206000209050919050565b60006020601f8301049050919050565b600082821b905092915050565b60006008830261130d7fffffffffffffffffffffffffffffffffffffffffffffffffffffffffffffffff826112d0565b61131786836112d0565b95508019841693508086168417925050509392505050565b6000819050919050565b600061135461134f61134a84610d94565b61132f565b610d94565b9050919050565b6000819050919050565b61136e83611339565b61138261137a8261135b565b8484546112dd565b825550505050565b600090565b61139761138a565b6113a2818484611365565b505050565b5b818110156113c6576113bb60008261138f565b6001810190506113a8565b5050565b601f82111561140b576113dc816112ab565b6113e5846112c0565b810160208510156113f4578190505b611408611400856112c0565b8301826113a7565b50505b505050565b600082821c905092915050565b600061142e60001984600802611410565b1980831691505092915050565b6000611447838361141d565b9150826002028217905092915050565b61146082610cd4565b67ffffffffffffffff81111561147957611478610a89565b5b611483825461127a565b61148e8282856113ca565b600060209050601f8311600181146114c157600084156114af578287015190505b6114b9858261143b565b865550611521565b601f1984166114cf866112ab565b60005b828110156114f7578489015182556001820191506020850194506020810190506114d2565b868310156115145784890151611510601f89168261141d565b8355505b6001600288020188555050505b505050505050565b600060808201905081810360008301526115438187610d1a565b905081810360208301526115578186610d1a565b9050818103604083015261156b8185610d1a565b905061157a6060830184610d9e565b9594505050505056fea2646970667358221220e4643953dacc53a84309da1eefeeb47c25c704dbabbb92e0553848d36f04a3ec64736f6c63430008140033","opcodes":"PUSH1 0xA0 PUSH1 0x40 MSTORE CALLVALUE DUP1 ISZERO PUSH2 0x10 JUMPI PUSH1 0x0 DUP1 REVERT JUMPDEST POP CALLER PUSH20 0xFFFFFFFFFFFFFFFFFFFFFFFFFFFFFFFFFFFFFFFF AND PUSH1 0x80 DUP2 PUSH20 0xFFFFFFFFFFFFFFFFFFFFFFFFFFFFFFFFFFFFFFFF AND DUP2 MSTORE POP POP PUSH1 0x80 MLOAD PUSH2 0x15B9 PUSH2 0x6D PUSH1 0x0 CODECOPY PUSH1 0x0 DUP2 DUP2 PUSH1 0xE0 ADD MSTORE DUP2 DUP2 PUSH2 0x2FB ADD MSTORE PUSH2 0xA38 ADD MSTORE PUSH2 0x15B9 PUSH1 0x0 RETURN INVALID PUSH1 0x80 PUSH1 0x40 MSTORE CALLVALUE DUP1 ISZERO PUSH2 0x10 JUMPI PUSH1 0x0 DUP1 REVERT JUMPDEST POP PUSH1 0x4 CALLDATASIZE LT PUSH2 0x4C JUMPI PUSH1 0x0 CALLDATALOAD PUSH1 0xE0 SHR DUP1 PUSH4 0x142E1542 EQ PUSH2 0x51 JUMPI DUP1 PUSH4 0x818A2994 EQ PUSH2 0x6D JUMPI DUP1 PUSH4 0x8B23D875 EQ PUSH2 0x89 JUMPI DUP1 PUSH4 0x8DA5CB5B EQ PUSH2 0xC0 JUMPI JUMPDEST PUSH1 0x0 DUP1 REVERT JUMPDEST PUSH2 0x6B PUSH1 0x4 DUP1 CALLDATASIZE SUB DUP2 ADD SWAP1 PUSH2 0x66 SWAP2 SWAP1 PUSH2 0xBB4 JUMP JUMPDEST PUSH2 0xDE JUMP JUMPDEST STOP JUMPDEST PUSH2 0x87 PUSH1 0x4 DUP1 CALLDATASIZE SUB DUP2 ADD SWAP1 PUSH2 0x82 SWAP2 SWAP1 PUSH2 0xBFD JUMP JUMPDEST PUSH2 0x2F9 JUMP JUMPDEST STOP JUMPDEST PUSH2 0xA3 PUSH1 0x4 DUP1 CALLDATASIZE SUB DUP2 ADD SWAP1 PUSH2 0x9E SWAP2 SWAP1 PUSH2 0xBB4 JUMP JUMPDEST PUSH2 0x6DB JUMP JUMPDEST PUSH1 0x40 MLOAD PUSH2 0xB7 SWAP9 SWAP8 SWAP7 SWAP6 SWAP5 SWAP4 SWAP3 SWAP2 SWAP1 PUSH2 0xDC8 JUMP JUMPDEST PUSH1 0x40 MLOAD DUP1 SWAP2 SUB SWAP1 RETURN JUMPDEST PUSH2 0xC8 PUSH2 0xA36 JUMP JUMPDEST PUSH1 0x40 MLOAD PUSH2 0xD5 SWAP2 SWAP1 PUSH2 0xE62 JUMP JUMPDEST PUSH1 0x40 MLOAD DUP1 SWAP2 SUB SWAP1 RETURN JUMPDEST PUSH32 0x0 PUSH20 0xFFFFFFFFFFFFFFFFFFFFFFFFFFFFFFFFFFFFFFFF AND CALLER PUSH20 0xFFFFFFFFFFFFFFFFFFFFFFFFFFFFFFFFFFFFFFFF AND EQ PUSH2 0x16C JUMPI PUSH1 0x40 MLOAD PUSH32 0x8C379A000000000000000000000000000000000000000000000000000000000 DUP2 MSTORE PUSH1 0x4 ADD PUSH2 0x163 SWAP1 PUSH2 0xEC9 JUMP JUMPDEST PUSH1 0x40 MLOAD DUP1 SWAP2 SUB SWAP1 REVERT JUMPDEST PUSH1 0x0 DUP2 MLOAD GT PUSH2 0x1B0 JUMPI PUSH1 0x40 MLOAD PUSH32 0x8C379A000000000000000000000000000000000000000000000000000000000 DUP2 MSTORE PUSH1 0x4 ADD PUSH2 0x1A7 SWAP1 PUSH2 0xF35 JUMP JUMPDEST PUSH1 0x40 MLOAD DUP1 SWAP2 SUB SWAP1 REVERT JUMPDEST PUSH1 0x0 DUP1 DUP3 PUSH1 0x40 MLOAD PUSH2 0x1C1 SWAP2 SWAP1 PUSH2 0xF91 JUMP JUMPDEST SWAP1 DUP2 MSTORE PUSH1 0x20 ADD PUSH1 0x40 MLOAD DUP1 SWAP2 SUB SWAP1 KECCAK256 SWAP1 POP DUP1 PUSH1 0x6 ADD PUSH1 0x1 SWAP1 SLOAD SWAP1 PUSH2 0x100 EXP SWAP1 DIV PUSH1 0xFF AND PUSH2 0x222 JUMPI PUSH1 0x40 MLOAD PUSH32 0x8C379A000000000000000000000000000000000000000000000000000000000 DUP2 MSTORE PUSH1 0x4 ADD PUSH2 0x219 SWAP1 PUSH2 0xFF4 JUMP JUMPDEST PUSH1 0x40 MLOAD DUP1 SWAP2 SUB SWAP1 REVERT JUMPDEST DUP1 PUSH1 0x6 ADD PUSH1 0x0 SWAP1 SLOAD SWAP1 PUSH2 0x100 EXP SWAP1 DIV PUSH1 0xFF AND ISZERO PUSH2 0x274 JUMPI PUSH1 0x40 MLOAD PUSH32 0x8C379A000000000000000000000000000000000000000000000000000000000 DUP2 MSTORE PUSH1 0x4 ADD PUSH2 0x26B SWAP1 PUSH2 0x1060 JUMP JUMPDEST PUSH1 0x40 MLOAD DUP1 SWAP2 SUB SWAP1 REVERT JUMPDEST PUSH1 0x1 DUP2 PUSH1 0x6 ADD PUSH1 0x0 PUSH2 0x100 EXP DUP2 SLOAD DUP2 PUSH1 0xFF MUL NOT AND SWAP1 DUP4 ISZERO ISZERO MUL OR SWAP1 SSTORE POP CALLER PUSH20 0xFFFFFFFFFFFFFFFFFFFFFFFFFFFFFFFFFFFFFFFF AND DUP3 PUSH1 0x40 MLOAD PUSH2 0x2B6 SWAP2 SWAP1 PUSH2 0xF91 JUMP JUMPDEST PUSH1 0x40 MLOAD DUP1 SWAP2 SUB SWAP1 KECCAK256 PUSH32 0x47958CDD7F8A583EEAD77C76BF001A8AF1605D4494014E49CF9CFFBE4F8240CD TIMESTAMP PUSH1 0x40 MLOAD PUSH2 0x2ED SWAP2 SWAP1 PUSH2 0x1080 JUMP JUMPDEST PUSH1 0x40 MLOAD DUP1 SWAP2 SUB SWAP1 LOG3 POP POP JUMP JUMPDEST PUSH32 0x0 PUSH20 0xFFFFFFFFFFFFFFFFFFFFFFFFFFFFFFFFFFFFFFFF AND CALLER PUSH20 0xFFFFFFFFFFFFFFFFFFFFFFFFFFFFFFFFFFFFFFFF AND EQ PUSH2 0x387 JUMPI PUSH1 0x40 MLOAD PUSH32 0x8C379A000000000000000000000000000000000000000000000000000000000 DUP2 MSTORE PUSH1 0x4 ADD PUSH2 0x37E SWAP1 PUSH2 0xEC9 JUMP JUMPDEST PUSH1 0x40 MLOAD DUP1 SWAP2 SUB SWAP1 REVERT JUMPDEST PUSH1 0x0 DUP5 MLOAD GT PUSH2 0x3CB JUMPI PUSH1 0x40 MLOAD PUSH32 0x8C379A000000000000000000000000000000000000000000000000000000000 DUP2 MSTORE PUSH1 0x4 ADD PUSH2 0x3C2 SWAP1 PUSH2 0x10E7 JUMP JUMPDEST PUSH1 0x40 MLOAD DUP1 SWAP2 SUB SWAP1 REVERT JUMPDEST PUSH1 0x0 DUP4 MLOAD GT PUSH2 0x40F JUMPI PUSH1 0x40 MLOAD PUSH32 0x8C379A000000000000000000000000000000000000000000000000000000000 DUP2 MSTORE PUSH1 0x4 ADD PUSH2 0x406 SWAP1 PUSH2 0xF35 JUMP JUMPDEST PUSH1 0x40 MLOAD DUP1 SWAP2 SUB SWAP1 REVERT JUMPDEST PUSH1 0x0 DUP3 MLOAD GT PUSH2 0x453 JUMPI PUSH1 0x40 MLOAD PUSH32 0x8C379A000000000000000000000000000000000000000000000000000000000 DUP2 MSTORE PUSH1 0x4 ADD PUSH2 0x44A SWAP1 PUSH2 0x1153 JUMP JUMPDEST PUSH1 0x40 MLOAD DUP1 SWAP2 SUB SWAP1 REVERT JUMPDEST PUSH1 0x0 DUP2 MLOAD GT PUSH2 0x497 JUMPI PUSH1 0x40 MLOAD PUSH32 0x8C379A000000000000000000000000000000000000000000000000000000000 DUP2 MSTORE PUSH1 0x4 ADD PUSH2 0x48E SWAP1 PUSH2 0x11BF JUMP JUMPDEST PUSH1 0x40 MLOAD DUP1 SWAP2 SUB SWAP1 REVERT JUMPDEST PUSH1 0x0 DUP1 DUP5 PUSH1 0x40 MLOAD PUSH2 0x4A8 SWAP2 SWAP1 PUSH2 0xF91 JUMP JUMPDEST SWAP1 DUP2 MSTORE PUSH1 0x20 ADD PUSH1 0x40 MLOAD DUP1 SWAP2 SUB SWAP1 KECCAK256 SWAP1 POP DUP1 PUSH1 0x6 ADD PUSH1 0x1 SWAP1 SLOAD SWAP1 PUSH2 0x100 EXP SWAP1 DIV PUSH1 0xFF AND ISZERO PUSH2 0x50A JUMPI PUSH1 0x40 MLOAD PUSH32 0x8C379A000000000000000000000000000000000000000000000000000000000 DUP2 MSTORE PUSH1 0x4 ADD PUSH2 0x501 SWAP1 PUSH2 0x122B JUMP JUMPDEST PUSH1 0x40 MLOAD DUP1 SWAP2 SUB SWAP1 REVERT JUMPDEST PUSH1 0x40 MLOAD DUP1 PUSH2 0x100 ADD PUSH1 0x40 MSTORE DUP1 DUP7 DUP2 MSTORE PUSH1 0x20 ADD DUP6 DUP2 MSTORE PUSH1 0x20 ADD DUP5 DUP2 MSTORE PUSH1 0x20 ADD DUP4 DUP2 MSTORE PUSH1 0x20 ADD CALLER PUSH20 0xFFFFFFFFFFFFFFFFFFFFFFFFFFFFFFFFFFFFFFFF AND DUP2 MSTORE PUSH1 0x20 ADD TIMESTAMP DUP2 MSTORE PUSH1 0x20 ADD PUSH1 0x0 ISZERO ISZERO DUP2 MSTORE PUSH1 0x20 ADD PUSH1 0x1 ISZERO ISZERO DUP2 MSTORE POP PUSH1 0x0 DUP6 PUSH1 0x40 MLOAD PUSH2 0x570 SWAP2 SWAP1 PUSH2 0xF91 JUMP JUMPDEST SWAP1 DUP2 MSTORE PUSH1 0x20 ADD PUSH1 0x40 MLOAD DUP1 SWAP2 SUB SWAP1 KECCAK256 PUSH1 0x0 DUP3 ADD MLOAD DUP2 PUSH1 0x0 ADD SWAP1 DUP2 PUSH2 0x593 SWAP2 SWAP1 PUSH2 0x1457 JUMP JUMPDEST POP PUSH1 0x20 DUP3 ADD MLOAD DUP2 PUSH1 0x1 ADD SWAP1 DUP2 PUSH2 0x5A9 SWAP2 SWAP1 PUSH2 0x1457 JUMP JUMPDEST POP PUSH1 0x40 DUP3 ADD MLOAD DUP2 PUSH1 0x2 ADD SWAP1 DUP2 PUSH2 0x5BF SWAP2 SWAP1 PUSH2 0x1457 JUMP JUMPDEST POP PUSH1 0x60 DUP3 ADD MLOAD DUP2 PUSH1 0x3 ADD SWAP1 DUP2 PUSH2 0x5D5 SWAP2 SWAP1 PUSH2 0x1457 JUMP JUMPDEST POP PUSH1 0x80 DUP3 ADD MLOAD DUP2 PUSH1 0x4 ADD PUSH1 0x0 PUSH2 0x100 EXP DUP2 SLOAD DUP2 PUSH20 0xFFFFFFFFFFFFFFFFFFFFFFFFFFFFFFFFFFFFFFFF MUL NOT AND SWAP1 DUP4 PUSH20 0xFFFFFFFFFFFFFFFFFFFFFFFFFFFFFFFFFFFFFFFF AND MUL OR SWAP1 SSTORE POP PUSH1 0xA0 DUP3 ADD MLOAD DUP2 PUSH1 0x5 ADD SSTORE PUSH1 0xC0 DUP3 ADD MLOAD DUP2 PUSH1 0x6 ADD PUSH1 0x0 PUSH2 0x100 EXP DUP2 SLOAD DUP2 PUSH1 0xFF MUL NOT AND SWAP1 DUP4 ISZERO ISZERO MUL OR SWAP1 SSTORE POP PUSH1 0xE0 DUP3 ADD MLOAD DUP2 PUSH1 0x6 ADD PUSH1 0x1 PUSH2 0x100 EXP DUP2 SLOAD DUP2 PUSH1 0xFF MUL NOT AND SWAP1 DUP4 ISZERO ISZERO MUL OR SWAP1 SSTORE POP SWAP1 POP POP CALLER PUSH20 0xFFFFFFFFFFFFFFFFFFFFFFFFFFFFFFFFFFFFFFFF AND DUP5 PUSH1 0x40 MLOAD PUSH2 0x68F SWAP2 SWAP1 PUSH2 0xF91 JUMP JUMPDEST PUSH1 0x40 MLOAD DUP1 SWAP2 SUB SWAP1 KECCAK256 PUSH32 0xA590C478C11EAE83022AA3C1AF0B90085EF1374166521D82ECB31CB0E5EFAC2C DUP8 DUP7 DUP7 TIMESTAMP PUSH1 0x40 MLOAD PUSH2 0x6CC SWAP5 SWAP4 SWAP3 SWAP2 SWAP1 PUSH2 0x1529 JUMP JUMPDEST PUSH1 0x40 MLOAD DUP1 SWAP2 SUB SWAP1 LOG3 POP POP POP POP POP JUMP JUMPDEST PUSH1 0x60 DUP1 PUSH1 0x60 DUP1 PUSH1 0x0 DUP1 PUSH1 0x0 DUP1 PUSH1 0x0 DUP1 DUP11 PUSH1 0x40 MLOAD PUSH2 0x6F8 SWAP2 SWAP1 PUSH2 0xF91 JUMP JUMPDEST SWAP1 DUP2 MSTORE PUSH1 0x20 ADD PUSH1 0x40 MLOAD DUP1 SWAP2 SUB SWAP1 KECCAK256 PUSH1 0x40 MLOAD DUP1 PUSH2 0x100 ADD PUSH1 0x40 MSTORE SWAP1 DUP2 PUSH1 0x0 DUP3 ADD DUP1 SLOAD PUSH2 0x722 SWAP1 PUSH2 0x127A JUMP JUMPDEST DUP1 PUSH1 0x1F ADD PUSH1 0x20 DUP1 SWAP2 DIV MUL PUSH1 0x20 ADD PUSH1 0x40 MLOAD SWAP1 DUP2 ADD PUSH1 0x40 MSTORE DUP1 SWAP3 SWAP2 SWAP1 DUP2 DUP2 MSTORE PUSH1 0x20 ADD DUP3 DUP1 SLOAD PUSH2 0x74E SWAP1 PUSH2 0x127A JUMP JUMPDEST DUP1 ISZERO PUSH2 0x79B JUMPI DUP1 PUSH1 0x1F LT PUSH2 0x770 JUMPI PUSH2 0x100 DUP1 DUP4 SLOAD DIV MUL DUP4 MSTORE SWAP2 PUSH1 0x20 ADD SWAP2 PUSH2 0x79B JUMP JUMPDEST DUP3 ADD SWAP2 SWAP1 PUSH1 0x0 MSTORE PUSH1 0x20 PUSH1 0x0 KECCAK256 SWAP1 JUMPDEST DUP2 SLOAD DUP2 MSTORE SWAP1 PUSH1 0x1 ADD SWAP1 PUSH1 0x20 ADD DUP1 DUP4 GT PUSH2 0x77E JUMPI DUP3 SWAP1 SUB PUSH1 0x1F AND DUP3 ADD SWAP2 JUMPDEST POP POP POP POP POP DUP2 MSTORE PUSH1 0x20 ADD PUSH1 0x1 DUP3 ADD DUP1 SLOAD PUSH2 0x7B4 SWAP1 PUSH2 0x127A JUMP JUMPDEST DUP1 PUSH1 0x1F ADD PUSH1 0x20 DUP1 SWAP2 DIV MUL PUSH1 0x20 ADD PUSH1 0x40 MLOAD SWAP1 DUP2 ADD PUSH1 0x40 MSTORE DUP1 SWAP3 SWAP2 SWAP1 DUP2 DUP2 MSTORE PUSH1 0x20 ADD DUP3 DUP1 SLOAD PUSH2 0x7E0 SWAP1 PUSH2 0x127A JUMP JUMPDEST DUP1 ISZERO PUSH2 0x82D JUMPI DUP1 PUSH1 0x1F LT PUSH2 0x802 JUMPI PUSH2 0x100 DUP1 DUP4 SLOAD DIV MUL DUP4 MSTORE SWAP2 PUSH1 0x20 ADD SWAP2 PUSH2 0x82D JUMP JUMPDEST DUP3 ADD SWAP2 SWAP1 PUSH1 0x0 MSTORE PUSH1 0x20 PUSH1 0x0 KECCAK256 SWAP1 JUMPDEST DUP2 SLOAD DUP2 MSTORE SWAP1 PUSH1 0x1 ADD SWAP1 PUSH1 0x20 ADD DUP1 DUP4 GT PUSH2 0x810 JUMPI DUP3 SWAP1 SUB PUSH1 0x1F AND DUP3 ADD SWAP2 JUMPDEST POP POP POP POP POP DUP2 MSTORE PUSH1 0x20 ADD PUSH1 0x2 DUP3 ADD DUP1 SLOAD PUSH2 0x846 SWAP1 PUSH2 0x127A JUMP JUMPDEST DUP1 PUSH1 0x1F ADD PUSH1 0x20 DUP1 SWAP2 DIV MUL PUSH1 0x20 ADD PUSH1 0x40 MLOAD SWAP1 DUP2 ADD PUSH1 0x40 MSTORE DUP1 SWAP3 SWAP2 SWAP1 DUP2 DUP2 MSTORE PUSH1 0x20 ADD DUP3 DUP1 SLOAD PUSH2 0x872 SWAP1 PUSH2 0x127A JUMP JUMPDEST DUP1 ISZERO PUSH2 0x8BF JUMPI DUP1 PUSH1 0x1F LT PUSH2 0x894 JUMPI PUSH2 0x100 DUP1 DUP4 SLOAD DIV MUL DUP4 MSTORE SWAP2 PUSH1 0x20 ADD SWAP2 PUSH2 0x8BF JUMP JUMPDEST DUP3 ADD SWAP2 SWAP1 PUSH1 0x0 MSTORE PUSH1 0x20 PUSH1 0x0 KECCAK256 SWAP1 JUMPDEST DUP2 SLOAD DUP2 MSTORE SWAP1 PUSH1 0x1 ADD SWAP1 PUSH1 0x20 ADD DUP1 DUP4 GT PUSH2 0x8A2 JUMPI DUP3 SWAP1 SUB PUSH1 0x1F AND DUP3 ADD SWAP2 JUMPDEST POP POP POP POP POP DUP2 MSTORE PUSH1 0x20 ADD PUSH1 0x3 DUP3 ADD DUP1 SLOAD PUSH2 0x8D8 SWAP1 PUSH2 0x127A JUMP JUMPDEST DUP1 PUSH1 0x1F ADD PUSH1 0x20 DUP1 SWAP2 DIV MUL PUSH1 0x20 ADD PUSH1 0x40 MLOAD SWAP1 DUP2 ADD PUSH1 0x40 MSTORE DUP1 SWAP3 SWAP2 SWAP1 DUP2 DUP2 MSTORE PUSH1 0x20 ADD DUP3 DUP1 SLOAD PUSH2 0x904 SWAP1 PUSH2 0x127A JUMP JUMPDEST DUP1 ISZERO PUSH2 0x951 JUMPI DUP1 PUSH1 0x1F LT PUSH2 0x926 JUMPI PUSH2 0x100 DUP1 DUP4 SLOAD DIV MUL DUP4 MSTORE SWAP2 PUSH1 0x20 ADD SWAP2 PUSH2 0x951 JUMP JUMPDEST DUP3 ADD SWAP2 SWAP1 PUSH1 0x0 MSTORE PUSH1 0x20 PUSH1 0x0 KECCAK256 SWAP1 JUMPDEST DUP2 SLOAD DUP2 MSTORE SWAP1 PUSH1 0x1 ADD SWAP1 PUSH1 0x20 ADD DUP1 DUP4 GT PUSH2 0x934 JUMPI DUP3 SWAP1 SUB PUSH1 0x1F AND DUP3 ADD SWAP2 JUMPDEST POP POP POP POP POP DUP2 MSTORE PUSH1 0x20 ADD PUSH1 0x4 DUP3 ADD PUSH1 0x0 SWAP1 SLOAD SWAP1 PUSH2 0x100 EXP SWAP1 DIV PUSH20 0xFFFFFFFFFFFFFFFFFFFFFFFFFFFFFFFFFFFFFFFF AND PUSH20 0xFFFFFFFFFFFFFFFFFFFFFFFFFFFFFFFFFFFFFFFF AND PUSH20 0xFFFFFFFFFFFFFFFFFFFFFFFFFFFFFFFFFFFFFFFF AND DUP2 MSTORE PUSH1 0x20 ADD PUSH1 0x5 DUP3 ADD SLOAD DUP2 MSTORE PUSH1 0x20 ADD PUSH1 0x6 DUP3 ADD PUSH1 0x0 SWAP1 SLOAD SWAP1 PUSH2 0x100 EXP SWAP1 DIV PUSH1 0xFF AND ISZERO ISZERO ISZERO ISZERO DUP2 MSTORE PUSH1 0x20 ADD PUSH1 0x6 DUP3 ADD PUSH1 0x1 SWAP1 SLOAD SWAP1 PUSH2 0x100 EXP SWAP1 DIV PUSH1 0xFF AND ISZERO ISZERO ISZERO ISZERO DUP2 MSTORE POP POP SWAP1 POP DUP1 PUSH1 0x0 ADD MLOAD DUP2 PUSH1 0x20 ADD MLOAD DUP3 PUSH1 0x40 ADD MLOAD DUP4 PUSH1 0x60 ADD MLOAD DUP5 PUSH1 0x80 ADD MLOAD DUP6 PUSH1 0xA0 ADD MLOAD DUP7 PUSH1 0xC0 ADD MLOAD DUP8 PUSH1 0xE0 ADD MLOAD SWAP9 POP SWAP9 POP SWAP9 POP SWAP9 POP SWAP9 POP SWAP9 POP SWAP9 POP SWAP9 POP POP SWAP2 SWAP4 SWAP6 SWAP8 POP SWAP2 SWAP4 SWAP6 SWAP8 JUMP JUMPDEST PUSH32 0x0 DUP2 JUMP JUMPDEST PUSH1 0x0 PUSH1 0x40 MLOAD SWAP1 POP SWAP1 JUMP JUMPDEST PUSH1 0x0 DUP1 REVERT JUMPDEST PUSH1 0x0 DUP1 REVERT JUMPDEST PUSH1 0x0 DUP1 REVERT JUMPDEST PUSH1 0x0 DUP1 REVERT JUMPDEST PUSH1 0x0 PUSH1 0x1F NOT PUSH1 0x1F DUP4 ADD AND SWAP1 POP SWAP2 SWAP1 POP JUMP JUMPDEST PUSH32 0x4E487B7100000000000000000000000000000000000000000000000000000000 PUSH1 0x0 MSTORE PUSH1 0x41 PUSH1 0x4 MSTORE PUSH1 0x24 PUSH1 0x0 REVERT JUMPDEST PUSH2 0xAC1 DUP3 PUSH2 0xA78 JUMP JUMPDEST DUP2 ADD DUP2 DUP2 LT PUSH8 0xFFFFFFFFFFFFFFFF DUP3 GT OR ISZERO PUSH2 0xAE0 JUMPI PUSH2 0xADF PUSH2 0xA89 JUMP JUMPDEST JUMPDEST DUP1 PUSH1 0x40 MSTORE POP POP POP JUMP JUMPDEST PUSH1 0x0 PUSH2 0xAF3 PUSH2 0xA5A JUMP JUMPDEST SWAP1 POP PUSH2 0xAFF DUP3 DUP3 PUSH2 0xAB8 JUMP JUMPDEST SWAP2 SWAP1 POP JUMP JUMPDEST PUSH1 0x0 PUSH8 0xFFFFFFFFFFFFFFFF DUP3 GT ISZERO PUSH2 0xB1F JUMPI PUSH2 0xB1E PUSH2 0xA89 JUMP JUMPDEST JUMPDEST PUSH2 0xB28 DUP3 PUSH2 0xA78 JUMP JUMPDEST SWAP1 POP PUSH1 0x20 DUP2 ADD SWAP1 POP SWAP2 SWAP1 POP JUMP JUMPDEST DUP3 DUP2 DUP4 CALLDATACOPY PUSH1 0x0 DUP4 DUP4 ADD MSTORE POP POP POP JUMP JUMPDEST PUSH1 0x0 PUSH2 0xB57 PUSH2 0xB52 DUP5 PUSH2 0xB04 JUMP JUMPDEST PUSH2 0xAE9 JUMP JUMPDEST SWAP1 POP DUP3 DUP2 MSTORE PUSH1 0x20 DUP2 ADD DUP5 DUP5 DUP5 ADD GT ISZERO PUSH2 0xB73 JUMPI PUSH2 0xB72 PUSH2 0xA73 JUMP JUMPDEST JUMPDEST PUSH2 0xB7E DUP5 DUP3 DUP6 PUSH2 0xB35 JUMP JUMPDEST POP SWAP4 SWAP3 POP POP POP JUMP JUMPDEST PUSH1 0x0 DUP3 PUSH1 0x1F DUP4 ADD SLT PUSH2 0xB9B JUMPI PUSH2 0xB9A PUSH2 0xA6E JUMP JUMPDEST JUMPDEST DUP2 CALLDATALOAD PUSH2 0xBAB DUP5 DUP3 PUSH1 0x20 DUP7 ADD PUSH2 0xB44 JUMP JUMPDEST SWAP2 POP POP SWAP3 SWAP2 POP POP JUMP JUMPDEST PUSH1 0x0 PUSH1 0x20 DUP3 DUP5 SUB SLT ISZERO PUSH2 0xBCA JUMPI PUSH2 0xBC9 PUSH2 0xA64 JUMP JUMPDEST JUMPDEST PUSH1 0x0 DUP3 ADD CALLDATALOAD PUSH8 0xFFFFFFFFFFFFFFFF DUP2 GT ISZERO PUSH2 0xBE8 JUMPI PUSH2 0xBE7 PUSH2 0xA69 JUMP JUMPDEST JUMPDEST PUSH2 0xBF4 DUP5 DUP3 DUP6 ADD PUSH2 0xB86 JUMP JUMPDEST SWAP2 POP POP SWAP3 SWAP2 POP POP JUMP JUMPDEST PUSH1 0x0 DUP1 PUSH1 0x0 DUP1 PUSH1 0x80 DUP6 DUP8 SUB SLT ISZERO PUSH2 0xC17 JUMPI PUSH2 0xC16 PUSH2 0xA64 JUMP JUMPDEST JUMPDEST PUSH1 0x0 DUP6 ADD CALLDATALOAD PUSH8 0xFFFFFFFFFFFFFFFF DUP2 GT ISZERO PUSH2 0xC35 JUMPI PUSH2 0xC34 PUSH2 0xA69 JUMP JUMPDEST JUMPDEST PUSH2 0xC41 DUP8 DUP3 DUP9 ADD PUSH2 0xB86 JUMP JUMPDEST SWAP5 POP POP PUSH1 0x20 DUP6 ADD CALLDATALOAD PUSH8 0xFFFFFFFFFFFFFFFF DUP2 GT ISZERO PUSH2 0xC62 JUMPI PUSH2 0xC61 PUSH2 0xA69 JUMP JUMPDEST JUMPDEST PUSH2 0xC6E DUP8 DUP3 DUP9 ADD PUSH2 0xB86 JUMP JUMPDEST SWAP4 POP POP PUSH1 0x40 DUP6 ADD CALLDATALOAD PUSH8 0xFFFFFFFFFFFFFFFF DUP2 GT ISZERO PUSH2 0xC8F JUMPI PUSH2 0xC8E PUSH2 0xA69 JUMP JUMPDEST JUMPDEST PUSH2 0xC9B DUP8 DUP3 DUP9 ADD PUSH2 0xB86 JUMP JUMPDEST SWAP3 POP POP PUSH1 0x60 DUP6 ADD CALLDATALOAD PUSH8 0xFFFFFFFFFFFFFFFF DUP2 GT ISZERO PUSH2 0xCBC JUMPI PUSH2 0xCBB PUSH2 0xA69 JUMP JUMPDEST JUMPDEST PUSH2 0xCC8 DUP8 DUP3 DUP9 ADD PUSH2 0xB86 JUMP JUMPDEST SWAP2 POP POP SWAP3 SWAP6 SWAP2 SWAP5 POP SWAP3 POP JUMP JUMPDEST PUSH1 0x0 DUP2 MLOAD SWAP1 POP SWAP2 SWAP1 POP JUMP JUMPDEST PUSH1 0x0 DUP3 DUP3 MSTORE PUSH1 0x20 DUP3 ADD SWAP1 POP SWAP3 SWAP2 POP POP JUMP JUMPDEST PUSH1 0x0 JUMPDEST DUP4 DUP2 LT ISZERO PUSH2 0xD0E JUMPI DUP1 DUP3 ADD MLOAD DUP2 DUP5 ADD MSTORE PUSH1 0x20 DUP2 ADD SWAP1 POP PUSH2 0xCF3 JUMP JUMPDEST PUSH1 0x0 DUP5 DUP5 ADD MSTORE POP POP POP POP JUMP JUMPDEST PUSH1 0x0 PUSH2 0xD25 DUP3 PUSH2 0xCD4 JUMP JUMPDEST PUSH2 0xD2F DUP2 DUP6 PUSH2 0xCDF JUMP JUMPDEST SWAP4 POP PUSH2 0xD3F DUP2 DUP6 PUSH1 0x20 DUP7 ADD PUSH2 0xCF0 JUMP JUMPDEST PUSH2 0xD48 DUP2 PUSH2 0xA78 JUMP JUMPDEST DUP5 ADD SWAP2 POP POP SWAP3 SWAP2 POP POP JUMP JUMPDEST PUSH1 0x0 PUSH20 0xFFFFFFFFFFFFFFFFFFFFFFFFFFFFFFFFFFFFFFFF DUP3 AND SWAP1 POP SWAP2 SWAP1 POP JUMP JUMPDEST PUSH1 0x0 PUSH2 0xD7E DUP3 PUSH2 0xD53 JUMP JUMPDEST SWAP1 POP SWAP2 SWAP1 POP JUMP JUMPDEST PUSH2 0xD8E DUP2 PUSH2 0xD73 JUMP JUMPDEST DUP3 MSTORE POP POP JUMP JUMPDEST PUSH1 0x0 DUP2 SWAP1 POP SWAP2 SWAP1 POP JUMP JUMPDEST PUSH2 0xDA7 DUP2 PUSH2 0xD94 JUMP JUMPDEST DUP3 MSTORE POP POP JUMP JUMPDEST PUSH1 0x0 DUP2 ISZERO ISZERO SWAP1 POP SWAP2 SWAP1 POP JUMP JUMPDEST PUSH2 0xDC2 DUP2 PUSH2 0xDAD JUMP JUMPDEST DUP3 MSTORE POP POP JUMP JUMPDEST PUSH1 0x0 PUSH2 0x100 DUP3 ADD SWAP1 POP DUP2 DUP2 SUB PUSH1 0x0 DUP4 ADD MSTORE PUSH2 0xDE3 DUP2 DUP12 PUSH2 0xD1A JUMP JUMPDEST SWAP1 POP DUP2 DUP2 SUB PUSH1 0x20 DUP4 ADD MSTORE PUSH2 0xDF7 DUP2 DUP11 PUSH2 0xD1A JUMP JUMPDEST SWAP1 POP DUP2 DUP2 SUB PUSH1 0x40 DUP4 ADD MSTORE PUSH2 0xE0B DUP2 DUP10 PUSH2 0xD1A JUMP JUMPDEST SWAP1 POP DUP2 DUP2 SUB PUSH1 0x60 DUP4 ADD MSTORE PUSH2 0xE1F DUP2 DUP9 PUSH2 0xD1A JUMP JUMPDEST SWAP1 POP PUSH2 0xE2E PUSH1 0x80 DUP4 ADD DUP8 PUSH2 0xD85 JUMP JUMPDEST PUSH2 0xE3B PUSH1 0xA0 DUP4 ADD DUP7 PUSH2 0xD9E JUMP JUMPDEST PUSH2 0xE48 PUSH1 0xC0 DUP4 ADD DUP6 PUSH2 0xDB9 JUMP JUMPDEST PUSH2 0xE55 PUSH1 0xE0 DUP4 ADD DUP5 PUSH2 0xDB9 JUMP JUMPDEST SWAP10 SWAP9 POP POP POP POP POP POP POP POP POP JUMP JUMPDEST PUSH1 0x0 PUSH1 0x20 DUP3 ADD SWAP1 POP PUSH2 0xE77 PUSH1 0x0 DUP4 ADD DUP5 PUSH2 0xD85 JUMP JUMPDEST SWAP3 SWAP2 POP POP JUMP JUMPDEST PUSH32 0x4F6E6C79206F776E657200000000000000000000000000000000000000000000 PUSH1 0x0 DUP3 ADD MSTORE POP JUMP JUMPDEST PUSH1 0x0 PUSH2 0xEB3 PUSH1 0xA DUP4 PUSH2 0xCDF JUMP JUMPDEST SWAP2 POP PUSH2 0xEBE DUP3 PUSH2 0xE7D JUMP JUMPDEST PUSH1 0x20 DUP3 ADD SWAP1 POP SWAP2 SWAP1 POP JUMP JUMPDEST PUSH1 0x0 PUSH1 0x20 DUP3 ADD SWAP1 POP DUP2 DUP2 SUB PUSH1 0x0 DUP4 ADD MSTORE PUSH2 0xEE2 DUP2 PUSH2 0xEA6 JUMP JUMPDEST SWAP1 POP SWAP2 SWAP1 POP JUMP JUMPDEST PUSH32 0x6365727469666963617465496420726571756972656400000000000000000000 PUSH1 0x0 DUP3 ADD MSTORE POP JUMP JUMPDEST PUSH1 0x0 PUSH2 0xF1F PUSH1 0x16 DUP4 PUSH2 0xCDF JUMP JUMPDEST SWAP2 POP PUSH2 0xF2A DUP3 PUSH2 0xEE9 JUMP JUMPDEST PUSH1 0x20 DUP3 ADD SWAP1 POP SWAP2 SWAP1 POP JUMP JUMPDEST PUSH1 0x0 PUSH1 0x20 DUP3 ADD SWAP1 POP DUP2 DUP2 SUB PUSH1 0x0 DUP4 ADD MSTORE PUSH2 0xF4E DUP2 PUSH2 0xF12 JUMP JUMPDEST SWAP1 POP SWAP2 SWAP1 POP JUMP JUMPDEST PUSH1 0x0 DUP2 SWAP1 POP SWAP3 SWAP2 POP POP JUMP JUMPDEST PUSH1 0x0 PUSH2 0xF6B DUP3 PUSH2 0xCD4 JUMP JUMPDEST PUSH2 0xF75 DUP2 DUP6 PUSH2 0xF55 JUMP JUMPDEST SWAP4 POP PUSH2 0xF85 DUP2 DUP6 PUSH1 0x20 DUP7 ADD PUSH2 0xCF0 JUMP JUMPDEST DUP1 DUP5 ADD SWAP2 POP POP SWAP3 SWAP2 POP POP JUMP JUMPDEST PUSH1 0x0 PUSH2 0xF9D DUP3 DUP5 PUSH2 0xF60 JUMP JUMPDEST SWAP2 POP DUP2 SWAP1 POP SWAP3 SWAP2 POP POP JUMP JUMPDEST PUSH32 0x4365727469666963617465206E6F7420666F756E640000000000000000000000 PUSH1 0x0 DUP3 ADD MSTORE POP JUMP JUMPDEST PUSH1 0x0 PUSH2 0xFDE PUSH1 0x15 DUP4 PUSH2 0xCDF JUMP JUMPDEST SWAP2 POP PUSH2 0xFE9 DUP3 PUSH2 0xFA8 JUMP JUMPDEST PUSH1 0x20 DUP3 ADD SWAP1 POP SWAP2 SWAP1 POP JUMP JUMPDEST PUSH1 0x0 PUSH1 0x20 DUP3 ADD SWAP1 POP DUP2 DUP2 SUB PUSH1 0x0 DUP4 ADD MSTORE PUSH2 0x100D DUP2 PUSH2 0xFD1 JUMP JUMPDEST SWAP1 POP SWAP2 SWAP1 POP JUMP JUMPDEST PUSH32 0x436572746966696361746520616C7265616479207265766F6B65640000000000 PUSH1 0x0 DUP3 ADD MSTORE POP JUMP JUMPDEST PUSH1 0x0 PUSH2 0x104A PUSH1 0x1B DUP4 PUSH2 0xCDF JUMP JUMPDEST SWAP2 POP PUSH2 0x1055 DUP3 PUSH2 0x1014 JUMP JUMPDEST PUSH1 0x20 DUP3 ADD SWAP1 POP SWAP2 SWAP1 POP JUMP JUMPDEST PUSH1 0x0 PUSH1 0x20 DUP3 ADD SWAP1 POP DUP2 DUP2 SUB PUSH1 0x0 DUP4 ADD MSTORE PUSH2 0x1079 DUP2 PUSH2 0x103D JUMP JUMPDEST SWAP1 POP SWAP2 SWAP1 POP JUMP JUMPDEST PUSH1 0x0 PUSH1 0x20 DUP3 ADD SWAP1 POP PUSH2 0x1095 PUSH1 0x0 DUP4 ADD DUP5 PUSH2 0xD9E JUMP JUMPDEST SWAP3 SWAP2 POP POP JUMP JUMPDEST PUSH32 0x6365727469666963617465486173682072657175697265640000000000000000 PUSH1 0x0 DUP3 ADD MSTORE POP JUMP JUMPDEST PUSH1 0x0 PUSH2 0x10D1 PUSH1 0x18 DUP4 PUSH2 0xCDF JUMP JUMPDEST SWAP2 POP PUSH2 0x10DC DUP3 PUSH2 0x109B JUMP JUMPDEST PUSH1 0x20 DUP3 ADD SWAP1 POP SWAP2 SWAP1 POP JUMP JUMPDEST PUSH1 0x0 PUSH1 0x20 DUP3 ADD SWAP1 POP DUP2 DUP2 SUB PUSH1 0x0 DUP4 ADD MSTORE PUSH2 0x1100 DUP2 PUSH2 0x10C4 JUMP JUMPDEST SWAP1 POP SWAP2 SWAP1 POP JUMP JUMPDEST PUSH32 0x73747564656E744E616D65207265717569726564000000000000000000000000 PUSH1 0x0 DUP3 ADD MSTORE POP JUMP JUMPDEST PUSH1 0x0 PUSH2 0x113D PUSH1 0x14 DUP4 PUSH2 0xCDF JUMP JUMPDEST SWAP2 POP PUSH2 0x1148 DUP3 PUSH2 0x1107 JUMP JUMPDEST PUSH1 0x20 DUP3 ADD SWAP1 POP SWAP2 SWAP1 POP JUMP JUMPDEST PUSH1 0x0 PUSH1 0x20 DUP3 ADD SWAP1 POP DUP2 DUP2 SUB PUSH1 0x0 DUP4 ADD MSTORE PUSH2 0x116C DUP2 PUSH2 0x1130 JUMP JUMPDEST SWAP1 POP SWAP2 SWAP1 POP JUMP JUMPDEST PUSH32 0x636F757273652072657175697265640000000000000000000000000000000000 PUSH1 0x0 DUP3 ADD MSTORE POP JUMP JUMPDEST PUSH1 0x0 PUSH2 0x11A9 PUSH1 0xF DUP4 PUSH2 0xCDF JUMP JUMPDEST SWAP2 POP PUSH2 0x11B4 DUP3 PUSH2 0x1173 JUMP JUMPDEST PUSH1 0x20 DUP3 ADD SWAP1 POP SWAP2 SWAP1 POP JUMP JUMPDEST PUSH1 0x0 PUSH1 0x20 DUP3 ADD SWAP1 POP DUP2 DUP2 SUB PUSH1 0x0 DUP4 ADD MSTORE PUSH2 0x11D8 DUP2 PUSH2 0x119C JUMP JUMPDEST SWAP1 POP SWAP2 SWAP1 POP JUMP JUMPDEST PUSH32 0x436572746966696361746520616C726561647920657869737473000000000000 PUSH1 0x0 DUP3 ADD MSTORE POP JUMP JUMPDEST PUSH1 0x0 PUSH2 0x1215 PUSH1 0x1A DUP4 PUSH2 0xCDF JUMP JUMPDEST SWAP2 POP PUSH2 0x1220 DUP3 PUSH2 0x11DF JUMP JUMPDEST PUSH1 0x20 DUP3 ADD SWAP1 POP SWAP2 SWAP1 POP JUMP JUMPDEST PUSH1 0x0 PUSH1 0x20 DUP3 ADD SWAP1 POP DUP2 DUP2 SUB PUSH1 0x0 DUP4 ADD MSTORE PUSH2 0x1244 DUP2 PUSH2 0x1208 JUMP JUMPDEST SWAP1 POP SWAP2 SWAP1 POP JUMP JUMPDEST PUSH32 0x4E487B7100000000000000000000000000000000000000000000000000000000 PUSH1 0x0 MSTORE PUSH1 0x22 PUSH1 0x4 MSTORE PUSH1 0x24 PUSH1 0x0 REVERT JUMPDEST PUSH1 0x0 PUSH1 0x2 DUP3 DIV SWAP1 POP PUSH1 0x1 DUP3 AND DUP1 PUSH2 0x1292 JUMPI PUSH1 0x7F DUP3 AND SWAP2 POP JUMPDEST PUSH1 0x20 DUP3 LT DUP2 SUB PUSH2 0x12A5 JUMPI PUSH2 0x12A4 PUSH2 0x124B JUMP JUMPDEST JUMPDEST POP SWAP2 SWAP1 POP JUMP JUMPDEST PUSH1 0x0 DUP2 SWAP1 POP DUP2 PUSH1 0x0 MSTORE PUSH1 0x20 PUSH1 0x0 KECCAK256 SWAP1 POP SWAP2 SWAP1 POP JUMP JUMPDEST PUSH1 0x0 PUSH1 0x20 PUSH1 0x1F DUP4 ADD DIV SWAP1 POP SWAP2 SWAP1 POP JUMP JUMPDEST PUSH1 0x0 DUP3 DUP3 SHL SWAP1 POP SWAP3 SWAP2 POP POP JUMP JUMPDEST PUSH1 0x0 PUSH1 0x8 DUP4 MUL PUSH2 0x130D PUSH32 0xFFFFFFFFFFFFFFFFFFFFFFFFFFFFFFFFFFFFFFFFFFFFFFFFFFFFFFFFFFFFFFFF DUP3 PUSH2 0x12D0 JUMP JUMPDEST PUSH2 0x1317 DUP7 DUP4 PUSH2 0x12D0 JUMP JUMPDEST SWAP6 POP DUP1 NOT DUP5 AND SWAP4 POP DUP1 DUP7 AND DUP5 OR SWAP3 POP POP POP SWAP4 SWAP3 POP POP POP JUMP JUMPDEST PUSH1 0x0 DUP2 SWAP1 POP SWAP2 SWAP1 POP JUMP JUMPDEST PUSH1 0x0 PUSH2 0x1354 PUSH2 0x134F PUSH2 0x134A DUP5 PUSH2 0xD94 JUMP JUMPDEST PUSH2 0x132F JUMP JUMPDEST PUSH2 0xD94 JUMP JUMPDEST SWAP1 POP SWAP2 SWAP1 POP JUMP JUMPDEST PUSH1 0x0 DUP2 SWAP1 POP SWAP2 SWAP1 POP JUMP JUMPDEST PUSH2 0x136E DUP4 PUSH2 0x1339 JUMP JUMPDEST PUSH2 0x1382 PUSH2 0x137A DUP3 PUSH2 0x135B JUMP JUMPDEST DUP5 DUP5 SLOAD PUSH2 0x12DD JUMP JUMPDEST DUP3 SSTORE POP POP POP POP JUMP JUMPDEST PUSH1 0x0 SWAP1 JUMP JUMPDEST PUSH2 0x1397 PUSH2 0x138A JUMP JUMPDEST PUSH2 0x13A2 DUP2 DUP5 DUP5 PUSH2 0x1365 JUMP JUMPDEST POP POP POP JUMP JUMPDEST JUMPDEST DUP2 DUP2 LT ISZERO PUSH2 0x13C6 JUMPI PUSH2 0x13BB PUSH1 0x0 DUP3 PUSH2 0x138F JUMP JUMPDEST PUSH1 0x1 DUP2 ADD SWAP1 POP PUSH2 0x13A8 JUMP JUMPDEST POP POP JUMP JUMPDEST PUSH1 0x1F DUP3 GT ISZERO PUSH2 0x140B JUMPI PUSH2 0x13DC DUP2 PUSH2 0x12AB JUMP JUMPDEST PUSH2 0x13E5 DUP5 PUSH2 0x12C0 JUMP JUMPDEST DUP2 ADD PUSH1 0x20 DUP6 LT ISZERO PUSH2 0x13F4 JUMPI DUP2 SWAP1 POP JUMPDEST PUSH2 0x1408 PUSH2 0x1400 DUP6 PUSH2 0x12C0 JUMP JUMPDEST DUP4 ADD DUP3 PUSH2 0x13A7 JUMP JUMPDEST POP POP JUMPDEST POP POP POP JUMP JUMPDEST PUSH1 0x0 DUP3 DUP3 SHR SWAP1 POP SWAP3 SWAP2 POP POP JUMP JUMPDEST PUSH1 0x0 PUSH2 0x142E PUSH1 0x0 NOT DUP5 PUSH1 0x8 MUL PUSH2 0x1410 JUMP JUMPDEST NOT DUP1 DUP4 AND SWAP2 POP POP SWAP3 SWAP2 POP POP JUMP JUMPDEST PUSH1 0x0 PUSH2 0x1447 DUP4 DUP4 PUSH2 0x141D JUMP JUMPDEST SWAP2 POP DUP3 PUSH1 0x2 MUL DUP3 OR SWAP1 POP SWAP3 SWAP2 POP POP JUMP JUMPDEST PUSH2 0x1460 DUP3 PUSH2 0xCD4 JUMP JUMPDEST PUSH8 0xFFFFFFFFFFFFFFFF DUP2 GT ISZERO PUSH2 0x1479 JUMPI PUSH2 0x1478 PUSH2 0xA89 JUMP JUMPDEST JUMPDEST PUSH2 0x1483 DUP3 SLOAD PUSH2 0x127A JUMP JUMPDEST PUSH2 0x148E DUP3 DUP3 DUP6 PUSH2 0x13CA JUMP JUMPDEST PUSH1 0x0 PUSH1 0x20 SWAP1 POP PUSH1 0x1F DUP4 GT PUSH1 0x1 DUP2 EQ PUSH2 0x14C1 JUMPI PUSH1 0x0 DUP5 ISZERO PUSH2 0x14AF JUMPI DUP3 DUP8 ADD MLOAD SWAP1 POP JUMPDEST PUSH2 0x14B9 DUP6 DUP3 PUSH2 0x143B JUMP JUMPDEST DUP7 SSTORE POP PUSH2 0x1521 JUMP JUMPDEST PUSH1 0x1F NOT DUP5 AND PUSH2 0x14CF DUP7 PUSH2 0x12AB JUMP JUMPDEST PUSH1 0x0 JUMPDEST DUP3 DUP2 LT ISZERO PUSH2 0x14F7 JUMPI DUP5 DUP10 ADD MLOAD DUP3 SSTORE PUSH1 0x1 DUP3 ADD SWAP2 POP PUSH1 0x20 DUP6 ADD SWAP5 POP PUSH1 0x20 DUP2 ADD SWAP1 POP PUSH2 0x14D2 JUMP JUMPDEST DUP7 DUP4 LT ISZERO PUSH2 0x1514 JUMPI DUP5 DUP10 ADD MLOAD PUSH2 0x1510 PUSH1 0x1F DUP10 AND DUP3 PUSH2 0x141D JUMP JUMPDEST DUP4 SSTORE POP JUMPDEST PUSH1 0x1 PUSH1 0x2 DUP9 MUL ADD DUP9 SSTORE POP POP POP JUMPDEST POP POP POP POP POP POP JUMP JUMPDEST PUSH1 0x0 PUSH1 0x80 DUP3 ADD SWAP1 POP DUP2 DUP2 SUB PUSH1 0x0 DUP4 ADD MSTORE PUSH2 0x1543 DUP2 DUP8 PUSH2 0xD1A JUMP JUMPDEST SWAP1 POP DUP2 DUP2 SUB PUSH1 0x20 DUP4 ADD MSTORE PUSH2 0x1557 DUP2 DUP7 PUSH2 0xD1A JUMP JUMPDEST SWAP1 POP DUP2 DUP2 SUB PUSH1 0x40 DUP4 ADD MSTORE PUSH2 0x156B DUP2 DUP6 PUSH2 0xD1A JUMP JUMPDEST SWAP1 POP PUSH2 0x157A PUSH1 0x60 DUP4 ADD DUP5 PUSH2 0xD9E JUMP JUMPDEST SWAP6 SWAP5 POP POP POP POP POP JUMP INVALID LOG2 PUSH5 0x6970667358 0x22 SLT KECCAK256 0xE4 PUSH5 0x3953DACC53 0xA8 NUMBER MULMOD 0xDA 0x1E 0xEF 0xEE 0xB4 PUSH29 0x25C704DBABBB92E0553848D36F04A3EC64736F6C634300081400330000 "},"methodIdentifiers":{"issueCertificate(string,string,string,string)":"818a2994","owner()":"8da5cb5b","revokeCertificate(string)":"142e1542","verifyCertificate(string)":"8b23d875"}}}}}