{
  "_format": "hh-sol-artifact-1",
  "contractName": "CertificateRegistry",
  "sourceName": "contract/CertificateRegistry.sol",
  "abi": [
    {
      "inputs": [],
      "stateMutability": "nonpayable",
      "type": "constructor"
    },
    {
      "anonymous": false,
      "inputs": [
        {
          "indexed": true,
          "internalType": "string",
          "name": "certificateId",
          "type": "string"
        },
        {
          "indexed": false,
          "internalType": "string",
          "name": "certificateHash",
          "type": "string"
        },
        {
          "indexed": false,
          "internalType": "string",
          "name": "studentName",
          "type": "string"
        },
        {
          "indexed": false,
          "internalType": "string",
          "name": "course",
          "type": "string"
        },
        {
          "indexed": true,
          "internalType": "address",
          "name": "issuerAddress",
          "type": "address"
        },
        {
          "indexed": false,
          "internalType": "uint256",
          "name": "issuedAt",
          "type": "uint256"
        }
      ],
      "name": "CertificateIssued",
      "type": "event"
    },
    {
      "anonymous": false,
      "inputs": [
        {
          "indexed": true,
          "internalType": "string",
          "name": "certificateId",
          "type": "string"
        },
        {
          "indexed": true,
          "internalType": "address",
          "name": "issuerAddress",
          "type": "address"
        },
        {
          "indexed": false,
          "internalType": "uint256",
          "name": "revokedAt",
          "type": "uint256"
        }
      ],
      "name": "CertificateRevoked",
      "type": "event"
    },
    {
      "inputs": [
        {
          "internalType": "string",
          "name": "certificateHash",
          "type": "string"
        },
        {
          "internalType": "string",
          "name": "certificateId",
          "type": "string"
        },
        {
          "internalType": "string",
          "name": "studentName",
          "type": "string"
        },
        {
          "internalType": "string",
          "name": "course",
          "type": "string"
        }
      ],
      "name": "issueCertificate",
      "outputs": [],
      "stateMutability": "nonpayable",
      "type": "function"
    },
    {
      "inputs": [],
      "name": "owner",
      "outputs": [
        {
          "internalType": "address",
          "name": "",
          "type": "address"
        }
      ],
      "stateMutability": "view",
      "type": "function"
    },
    {
      "inputs": [
        {
          "internalType": "string",
          "name": "certificateId",
          "type": "string"
        }
      ],
      "name": "revokeCertificate",
      "outputs": [],
      "stateMutability": "nonpayable",
      "type": "function"
    },
    {
      "inputs": [
        {
          "internalType": "string",
          "name": "certificateId",
          "type": "string"
        }
      ],
      "name": "verifyCertificate",
      "outputs": [
        {
          "internalType": "string",
          "name": "certificateHash",
          "type": "string"
        },
        {
          "internalType": "string",
          "name": "storedCertificateId",
          "type": "string"
        },
        {
          "internalType": "string",
          "name": "studentName",
          "type": "string"
        },
        {
          "internalType": "string",
          "name": "course",
          "type": "string"
        },
        {
          "internalType": "address",
          "name": "issuerAddress",
          "type": "address"
        },
        {
          "internalType": "uint256",
          "name": "issuedAt",
          "type": "uint256"
        },
        {
          "internalType": "bool",
          "name": "revoked",
          "type": "bool"
        },
        {
          "internalType": "bool",
          "name": "exists",
          "type": "bool"
        }
      ],
      "stateMutability": "view",
      "type": "function"
    }
  ],
  "bytecode": "0x60a060405234801561001057600080fd5b503373ffffffffffffffffffffffffffffffffffffffff1660808173ffffffffffffffffffffffffffffffffffffffff16815250506080516115b961006d6000396000818160e0015281816102fb0152610a3801526115b96000f3fe608060405234801561001057600080fd5b506004361061004c5760003560e01c8063142e154214610051578063818a29941461006d5780638b23d875146100895780638da5cb5b146100c0575b600080fd5b61006b60048036038101906100669190610bb4565b6100de565b005b61008760048036038101906100829190610bfd565b6102f9565b005b6100a3600480360381019061009e9190610bb4565b6106db565b6040516100b7989796959493929190610dc8565b60405180910390f35b6100c8610a36565b6040516100d59190610e62565b60405180910390f35b7f000000000000000000000000000000000000000000000000000000000000000073ffffffffffffffffffffffffffffffffffffffff163373ffffffffffffffffffffffffffffffffffffffff161461016c576040517f08c379a000000000000000000000000000000000000000000000000000000000815260040161016390610ec9565b60405180910390fd5b60008151116101b0576040517f08c379a00000000000000000000000000000000000000000000000000000000081526004016101a790610f35565b60405180910390fd5b600080826040516101c19190610f91565b908152602001604051809103902090508060060160019054906101000a900460ff16610222576040517f08c379a000000000000000000000000000000000000000000000000000000000815260040161021990610ff4565b60405180910390fd5b8060060160009054906101000a900460ff1615610274576040517f08c379a000000000000000000000000000000000000000000000000000000000815260040161026b90611060565b60405180910390fd5b60018160060160006101000a81548160ff0219169083151502179055503373ffffffffffffffffffffffffffffffffffffffff16826040516102b69190610f91565b60405180910390207f47958cdd7f8a583eead77c76bf001a8af1605d4494014e49cf9cffbe4f8240cd426040516102ed9190611080565b60405180910390a35050565b7f000000000000000000000000000000000000000000000000000000000000000073ffffffffffffffffffffffffffffffffffffffff163373ffffffffffffffffffffffffffffffffffffffff1614610387576040517f08c379a000000000000000000000000000000000000000000000000000000000815260040161037e90610ec9565b60405180910390fd5b60008451116103cb576040517f08c379a00000000000000000000000000000000000000000000000000000000081526004016103c2906110e7565b60405180910390fd5b600083511161040f576040517f08c379a000000000000000000000000000000000000000000000000000000000815260040161040690610f35565b60405180910390fd5b6000825111610453576040517f08c379a000000000000000000000000000000000000000000000000000000000815260040161044a90611153565b60405180910390fd5b6000815111610497576040517f08c379a000000000000000000000000000000000000000000000000000000000815260040161048e906111bf565b60405180910390fd5b600080846040516104a89190610f91565b908152602001604051809103902090508060060160019054906101000a900460ff161561050a576040517f08c379a00000000000000000000000000000000000000000000000000000000081526004016105019061122b565b60405180910390fd5b6040518061010001604052808681526020018581526020018481526020018381526020013373ffffffffffffffffffffffffffffffffffffffff168152602001428152602001600015158152602001600115158152506000856040516105709190610f91565b908152602001604051809103902060008201518160000190816105939190611457565b5060208201518160010190816105a99190611457565b5060408201518160020190816105bf9190611457565b5060608201518160030190816105d59190611457565b5060808201518160040160006101000a81548173ffffffffffffffffffffffffffffffffffffffff021916908373ffffffffffffffffffffffffffffffffffffffff16021790555060a0820151816005015560c08201518160060160006101000a81548160ff02191690831515021790555060e08201518160060160016101000a81548160ff0219169083151502179055509050503373ffffffffffffffffffffffffffffffffffffffff168460405161068f9190610f91565b60405180910390207fa590c478c11eae83022aa3c1af0b90085ef1374166521d82ecb31cb0e5efac2c878686426040516106cc9493929190611529565b60405180910390a35050505050565b6060806060806000806000806000808a6040516106f89190610f91565b9081526020016040518091039020604051806101000160405290816000820180546107229061127a565b80601f016020809104026020016040519081016040528092919081815260200182805461074e9061127a565b801561079b5780601f106107705761010080835404028352916020019161079b565b820191906000526020600020905b81548152906001019060200180831161077e57829003601f168201915b505050505081526020016001820180546107b49061127a565b80601f01602080910402602001604051908101604052809291908181526020018280546107e09061127a565b801561082d5780601f106108025761010080835404028352916020019161082d565b820191906000526020600020905b81548152906001019060200180831161081057829003601f168201915b505050505081526020016002820180546108469061127a565b80601f01602080910402602001604051908101604052809291908181526020018280546108729061127a565b80156108bf5780601f10610894576101008083540402835291602001916108bf565b820191906000526020600020905b8154815290600101906020018083116108a257829003601f168201915b505050505081526020016003820180546108d89061127a565b80601f01602080910402602001604051908101604052809291908181526020018280546109049061127a565b80156109515780601f1061092657610100808354040283529160200191610951565b820191906000526020600020905b81548152906001019060200180831161093457829003601f168201915b505050505081526020016004820160009054906101000a900473ffffffffffffffffffffffffffffffffffffffff1673ffffffffffffffffffffffffffffffffffffffff1673ffffffffffffffffffffffffffffffffffffffff168152602001600582015481526020016006820160009054906101000a900460ff161515151581526020016006820160019054906101000a900460ff1615151515815250509050806000015181602001518260400151836060015184608001518560a001518660c001518760e001519850985098509850985098509850985050919395975091939597565b7f000000000000000000000000000000000000000000000000000000000000000081565b6000604051905090565b600080fd5b600080fd5b600080fd5b600080fd5b6000601f19601f8301169050919050565b7f4e487b7100000000000000000000000000000000000000000000000000000000600052604160045260246000fd5b610ac182610a78565b810181811067ffffffffffffffff82111715610ae057610adf610a89565b5b80604052505050565b6000610af3610a5a565b9050610aff8282610ab8565b919050565b600067ffffffffffffffff821115610b1f57610b1e610a89565b5b610b2882610a78565b9050602081019050919050565b82818337600083830152505050565b6000610b57610b5284610b04565b610ae9565b905082815260208101848484011115610b7357610b72610a73565b5b610b7e848285610b35565b509392505050565b600082601f830112610b9b57610b9a610a6e565b5b8135610bab848260208601610b44565b91505092915050565b600060208284031215610bca57610bc9610a64565b5b600082013567ffffffffffffffff811115610be857610be7610a69565b5b610bf484828501610b86565b91505092915050565b60008060008060808587031215610c1757610c16610a64565b5b600085013567ffffffffffffffff811115610c3557610c34610a69565b5b610c4187828801610b86565b945050602085013567ffffffffffffffff811115610c6257610c61610a69565b5b610c6e87828801610b86565b935050604085013567ffffffffffffffff811115610c8f57610c8e610a69565b5b610c9b87828801610b86565b925050606085013567ffffffffffffffff811115610cbc57610cbb610a69565b5b610cc887828801610b86565b91505092959194509250565b600081519050919050565b600082825260208201905092915050565b60005b83811015610d0e578082015181840152602081019050610cf3565b60008484015250505050565b6000610d2582610cd4565b610d2f8185610cdf565b9350610d3f818560208601610cf0565b610d4881610a78565b840191505092915050565b600073ffffffffffffffffffffffffffffffffffffffff82169050919050565b6000610d7e82610d53565b9050919050565b610d8e81610d73565b82525050565b6000819050919050565b610da781610d94565b82525050565b60008115159050919050565b610dc281610dad565b82525050565b6000610100820190508181036000830152610de3818b610d1a565b90508181036020830152610df7818a610d1a565b90508181036040830152610e0b8189610d1a565b90508181036060830152610e1f8188610d1a565b9050610e2e6080830187610d85565b610e3b60a0830186610d9e565b610e4860c0830185610db9565b610e5560e0830184610db9565b9998505050505050505050565b6000602082019050610e776000830184610d85565b92915050565b7f4f6e6c79206f776e657200000000000000000000000000000000000000000000600082015250565b6000610eb3600a83610cdf565b9150610ebe82610e7d565b602082019050919050565b60006020820190508181036000830152610ee281610ea6565b9050919050565b7f6365727469666963617465496420726571756972656400000000000000000000600082015250565b6000610f1f601683610cdf565b9150610f2a82610ee9565b602082019050919050565b60006020820190508181036000830152610f4e81610f12565b9050919050565b600081905092915050565b6000610f6b82610cd4565b610f758185610f55565b9350610f85818560208601610cf0565b80840191505092915050565b6000610f9d8284610f60565b915081905092915050565b7f4365727469666963617465206e6f7420666f756e640000000000000000000000600082015250565b6000610fde601583610cdf565b9150610fe982610fa8565b602082019050919050565b6000602082019050818103600083015261100d81610fd1565b9050919050565b7f436572746966696361746520616c7265616479207265766f6b65640000000000600082015250565b600061104a601b83610cdf565b915061105582611014565b602082019050919050565b600060208201905081810360008301526110798161103d565b9050919050565b60006020820190506110956000830184610d9e565b92915050565b7f6365727469666963617465486173682072657175697265640000000000000000600082015250565b60006110d1601883610cdf565b91506110dc8261109b565b602082019050919050565b60006020820190508181036000830152611100816110c4565b9050919050565b7f73747564656e744e616d65207265717569726564000000000000000000000000600082015250565b600061113d601483610cdf565b915061114882611107565b602082019050919050565b6000602082019050818103600083015261116c81611130565b9050919050565b7f636f757273652072657175697265640000000000000000000000000000000000600082015250565b60006111a9600f83610cdf565b91506111b482611173565b602082019050919050565b600060208201905081810360008301526111d88161119c565b9050919050565b7f436572746966696361746520616c726561647920657869737473000000000000600082015250565b6000611215601a83610cdf565b9150611220826111df565b602082019050919050565b6000602082019050818103600083015261124481611208565b9050919050565b7f4e487b7100000000000000000000000000000000000000000000000000000000600052602260045260246000fd5b6000600282049050600182168061129257607f821691505b6020821081036112a5576112a461124b565b5b50919050565b60008190508160005260206000209050919050565b60006020601f8301049050919050565b600082821b905092915050565b60006008830261130d7fffffffffffffffffffffffffffffffffffffffffffffffffffffffffffffffff826112d0565b61131786836112d0565b95508019841693508086168417925050509392505050565b6000819050919050565b600061135461134f61134a84610d94565b61132f565b610d94565b9050919050565b6000819050919050565b61136e83611339565b61138261137a8261135b565b8484546112dd565b825550505050565b600090565b61139761138a565b6113a2818484611365565b505050565b5b818110156113c6576113bb60008261138f565b6001810190506113a8565b5050565b601f82111561140b576113dc816112ab565b6113e5846112c0565b810160208510156113f4578190505b611408611400856112c0565b8301826113a7565b50505b505050565b600082821c905092915050565b600061142e60001984600802611410565b1980831691505092915050565b6000611447838361141d565b9150826002028217905092915050565b61146082610cd4565b67ffffffffffffffff81111561147957611478610a89565b5b611483825461127a565b61148e8282856113ca565b600060209050601f8311600181146114c157600084156114af578287015190505b6114b9858261143b565b865550611521565b601f1984166114cf866112ab565b60005b828110156114f7578489015182556001820191506020850194506020810190506114d2565b868310156115145784890151611510601f89168261141d565b8355505b6001600288020188555050505b505050505050565b600060808201905081810360008301526115438187610d1a565b905081810360208301526115578186610d1a565b9050818103604083015261156b8185610d1a565b905061157a6060830184610d9e565b9594505050505056fea2646970667358221220e4643953dacc53a84309da1eefeeb47c25c704dbabbb92e0553848d36f04a3ec64736f6c63430008140033",
  "linkReferences": {},
  "deployedLinkReferences": {}
}